:100000000C94CA000C94FA030C941F040C9444043E
:100010000C9469040C94E7000C94E7000C94E7003E
:100020000C94E7000C942E0C0C94E7000C94E70061
:100030000C94E7000C94E7000C94E7000C94E700A4
:100040000C94E7000C94E7000C94020B0C94C40A87
:100050000C94E7000C94E7000C94E7000C94E70084
:100060000C94E7000C94E7000C94E7000C94E70074
:100070000C94E7000C94E7000C94E7000C94E70064
:100080000C94E7000C94E7000C94E700D400D8002F
:10009000DC00E000E400E800EC00F000F400F70011
:1000A000FB00FF00030108010C01100114011901FC
:1000B0001D01210126012A012F01340139013E01D0
:1000C000430147014A014E01520156015A015E01A6
:1000D000620166017E90907FFE92926D7C828245E5
:1000E000FE82827DFE929283FE9090817C82925D60
:1000F000FE1010FF82FE83040202FDFE1028C7FEE0
:10010000020203FE403040FFFE2010FF7C82827D11
:10011000FE9090617C828A7C03FE90986764929244
:100120004D8080FE8081FC0202FDF8040204F9FC8F
:10013000021C02FDC6281028C7E0100E10E1868AB6
:1001400092A2C37C92A27D42FE03468A92634492AD
:10015000926D182848FFE4A2A29D7C92924D809E49
:10016000A0C16C92926D6492927D1B5B25643B25CD
:100170006448001B5B306D001B5B376D001B5B32FE
:100180004A001B5B4B001B5B25646D001B5B421B25
:100190005B44000011241FBECFEFD0E1DEBFCDBF16
:1001A00011E0A0E0B1E0ECE6F1E202C005900D92B2
:1001B000AC3CB107D9F713E0ACECB1E001C01D9243
:1001C000A033B107E1F70E941D090C94B4100C9400
:1001D0000000CF93DF9300D000D000D0CDB7DEB7C2
:1001E000E3EEF1E0CF010F961192E817F907E1F77E
:1001F0000E94930629833A834B835C836D837E83BD
:10020000A2EFB1E0FE01319686E001900D9281509F
:10021000E1F78FEF8093F80126960FB6F894DEBFD2
:100220000FBECDBFDF91CF9108954F925F926F9235
:100230007F928F929F92AF92BF92CF92DF92EF9276
:10024000FF920F931F93CF93DF936091F801C62F16
:10025000DD27C7FDD0958091FD01C80FD11D00E0BD
:1002600010E00F2EF2EFCF2EF1E0DF2EF02D0F2E4B
:10027000FEE08F2E9924F02D66247724262F332735
:1002800027FD309589EF91E07C01E21AF30A0F2EE9
:10029000F6E0AF2EBB24F02D0F2EF4E04F2EF2E04F
:1002A0005F2EF02D39C0440F551F8E9190E0072E20
:1002B00002C0959587950A94E2F781709070482B5B
:1002C000592B6623A4F0261794F02C173D077CF4D5
:1002D000F701E20FF31F808190E0072E02C0959591
:1002E00087950A94E2F781709070482B592B215022
:1002F00030408FEF2F3F3807B1F6C501801B910BBF
:10030000880F991F840D951DFC01518340830F5F59
:100310001F4F0730110529F0D6019401A301702F5A
:10032000C2CFDF91CF911F910F91FF90EF90DF909F
:10033000CF90BF90AF909F908F907F906F905F9085
:100340004F90089581E09091F8019F3F09F480E07B
:1003500008950F931F93CF93C0E003EE11E0EC2FAD
:10036000FF27E7FDF095E00FF11F80818F37B9F48B
:1003700084E090E00E942C0981E090E00E94410915
:10038000CE305CF4EC2FFF27E7FDF095E00FF11F76
:1003900081818083CF5FCE30A9F70E94A901CF5F12
:1003A000CE30ECF21092F1018AE090E06EE070E065
:1003B0000E94540B0E94370900D000D020E031E0A9
:1003C000EDB7FEB732832183948383830E94730D3C
:1003D0000F900F900F900F908AE090E061E170E035
:1003E0000E94540B0E944C0900D000D02AE031E05A
:1003F000EDB7FEB732832183948383830E94730D0C
:100400000F900F900F900F90CF911F910F91089523
:100410000F931F93CF93DF932091FD0130E01216CD
:10042000130604F54091F801552747FD5095E0E08B
:10043000F0E060E0C3EED1E009EF11E0CF01840FFE
:10044000951FDE01A80FB91FE00FF11F9C9180815D
:10045000892B8C936F5FE62FFF27E7FDF095E2175E
:10046000F30764F38FEF8093F8010E94A901DF91F5
:10047000CF911F910F9108950F931F93CF93DF9307
:10048000FC01448150E01416150634F5C62FDD2713
:10049000C7FDD095DE01AD51BE4F9C91808189236F
:1004A000E9F460E003EE11E00DC0C801820F931F74
:1004B0008C0F9D1F2E0F3F1FDC019C91D9018C9149
:1004C000892371F46F5F262F332727FD309524177A
:1004D00035075CF380E005C080E003C081E001C027
:1004E00081E0DF91CF911F910F9108950F931F939A
:1004F000CF93DF9300D000D000D0CDB7DEB709EFA7
:1005000011E0C801BE016F5F7F4F0E94EB05C8017B
:100510000E940406882371F0C8016091F8010E94CE
:100520003C02882349F0CE010196B8010E94EB05F8
:1005300080E003C080E001C081E026960FB6F89409
:10054000DEBF0FBECDBFDF91CF911F910F910895F8
:10055000CF93C091F801CC2331F481E090E00E9468
:100560002C0980E012C06C2F615089EF91E00E944D
:100570003C02882331F081E090E00E942C0980E069
:1005800004C0C150C093F80181E0CF9108951F933A
:10059000CF93DF9300D000D000D0CDB7DEB7182FB7
:1005A00089EF91E0BE016F5F7F4F0E94EB05112341
:1005B00039F489EF91E00E94EA06882339F416C0E5
:1005C00089EF91E00E940F07882391F089EF91E075
:1005D0006091F8010E943C02882361F0CE010196EF
:1005E00069EF71E00E94EB0580E005C080E003C088
:1005F00080E001C081E026960FB6F894DEBF0FBE02
:10060000CDBFDF91CF911F9108952F923F924F92CE
:100610005F926F927F928F929F92AF92BF92CF9292
:10062000DF92EF92FF920F931F93CF93DF9300D04F
:1006300000D000D0CDB7DEB7A9EFB1E0E2EFF1E036
:1006400086E001900D928150E1F70E949306298384
:100650003A834B835C836D837E83A2EFB1E0FE011E
:10066000319686E001900D928150E1F78AE090E0AA
:1006700064E070E00E94540B00D00BE111E0EDB794
:10068000FEB7128301830E94730D0F900F908AE0D2
:1006900090E065E070E00E94540B00D0EDB7FEB72B
:1006A000128301830E94730D0F900F908AE090E0F7
:1006B00066E070E00E94540B00D0EDB7FEB71283E5
:1006C00001830E94730D0F900F90CC24DD24689459
:1006D000C2F86624772463940F2EF2EF2F2EF1E0F8
:1006E0003F2EF02D0F2EF6E04F2E5524F02D26C074
:1006F000F70181917F0190E08A219B21009769F0A9
:10070000C801B4010E94540B0E947D0B80E290E06E
:100710000E94AB0D0E94710B04C080E290E00E9429
:10072000AB0D0F5F1F4F0D30110511F70894C10875
:10073000D108FFEFCF16FFEFDF0671F053010C2C4D
:1007400002C0AA0CBB1C0A94E2F771010AE010E097
:1007500042018C189D08CCCF9091FC018091FD0145
:10076000891728F48FE0891B8093F80104C09FE06B
:10077000981B9093F80189EF91E06091F8010E9435
:100780003C02882329F08FEF8093F80180E001C0BC
:1007900081E026960FB6F894DEBF0FBECDBFDF9185
:1007A000CF911F910F91FF90EF90DF90CF90BF906E
:1007B000AF909F908F907F906F905F904F903F9001
:1007C0002F9008958093230108958AEA80936A0008
:1007D0008FE089BF88BF8FEF8093230108959FB773
:1007E000F894809123012FEF2093230199230CF497
:1007F000789408951F920F920FB60F9211242F93A1
:100800003F934F935F936F937F938F939F93AF9398
:10081000BF93EF93FF9380E00E94E203FF91EF917B
:10082000BF91AF919F918F917F916F915F914F9108
:100830003F912F910F900FBE0F901F9018951F9210
:100840000F920FB60F9211242F933F934F935F9304
:100850006F937F938F939F93AF93BF93EF93FF9388
:1008600081E00E94E203FF91EF91BF91AF919F91D0
:100870008F917F916F915F914F913F912F910F9049
:100880000FBE0F901F9018951F920F920FB60F92E8
:1008900011242F933F934F935F936F937F938F9385
:1008A0009F93AF93BF93EF93FF9382E00E94E20385
:1008B000FF91EF91BF91AF919F918F917F916F9138
:1008C0005F914F913F912F910F900FBE0F901F900E
:1008D00018951F920F920FB60F9211242F933F93EA
:1008E0004F935F936F937F938F939F93AF93BF9338
:1008F000EF93FF9383E00E94E203FF91EF91BF919A
:10090000AF919F918F917F916F915F914F913F91A7
:100910002F910F900FBE0F901F90189500000000B0
:100920000000000008958FB9779BFECF8FB1089526
:1009300087B3876087BBC09A81E58DB981E08EB9A6
:100940000895FF920F931F93CF93DF93182FD62F05
:10095000C098CFE00E948E04C150E1F7112311F43A
:1009600080E801C081E8D11182600E949304182FB1
:10097000CAE00E948E04C150E1F780E00E94930417
:10098000082FCAE00E948E04C150E1F780E00E9467
:100990009304D82FCAE00E948E04C150E1F780E092
:1009A0000E949304C82F0F2EFAE0FF2EF02D0E9414
:1009B0008E04FA94E1F780E00E949304809303028E
:1009C000C09A902F80E0212F30E0822B932B9093C0
:1009D00000028093FF019C2F80E02D2F30E0822BBE
:1009E000932B9093020280930102DF91CF911F918C
:1009F0000F91FF90089520EF22B923B91092CC01F6
:100A00009093CE018093CD011092CF010895CF93A2
:100A1000DF932091CC01222309F48EC0C0B3E6B34A
:100A2000A0B366B3F0E0E072F070F595E795F59548
:100A3000E795D0E0C074D070D595C795D595C7958A
:100A4000CE2BB0E0A071B070FD01F595E795F5955E
:100A5000E795EC2B70E060747070AB01559547958D
:100A6000559547955595479555954795559547956E
:100A70004E2B30E0F901E053FE4F8081841709F4DA
:100A800046C040834E3109F442C0842F90E0AC014F
:100A90005595479540FF23C0AC0155954795559511
:100AA000479540FF16C0AC0155954795559547951C
:100AB0005595479540FF10C09595879595958795D5
:100AC000959587959595879580FD21C084E090E068
:100AD00008C082E090E005C083E090E002C081E0C1
:100AE00090E0FC01EE0FFF1FEE0FFF1F8E0F9F1F08
:100AF000280F391FF901EC5DFE4F80818093CF01F3
:100B0000E091CD01F091CE01309709F009958091E7
:100B1000CC018F5F8093CC01853018F081E0809309
:100B2000CC018091CC01EDE3F1E0E80FF11D808173
:100B300083B9DF91CF91089581E08093CC01F1CF0B
:100B40009FB7F8948091CF011092CF0199230CF4B4
:100B5000789408958FEF8ABB8FE784BB87E08093FA
:100B60006400109205021092040210920702109283
:100B70000602109209021092080210920B021092C3
:100B80000A0210920D0210920C0210920F021092A3
:100B90000E02109211021092100208958091D50158
:100BA0008F5F8093D501873011F41092D501E091C9
:100BB000D501E0936500F0E0EE0FFF1FEC5FFD4F05
:100BC0008081918180958BBB80819181892F8F77E6
:100BD000809585BB0895FC01DB0180818C93818128
:100BE00011968C931197828112968C931297838120
:100BF00013968C931397848114968C931497858104
:100C000015968C93159708956F927F928F929F926D
:100C1000AF92BF92CF92DF92EF92FF920F931F930A
:100C2000CF93DF9300D000D000D0CDB7DEB75C010A
:100C3000FC012581022F10E0D4808D2C9924C8015D
:100C4000880D991D883091050CF057C0DC82A38176
:100C5000AD832E8319821A821B82181419046CF139
:100C600045C0E1E0F0E0EC0FFD1FE20FF31FC8010B
:100C7000820F931F9B0102C0359527958A95E2F755
:100C8000C901817090E00E2C02C0880F991F0A9450
:100C9000E2F79081892B80834F5F242F332727FD34
:100CA00030952A173B07ECF2E52FFF27E7FDF0957B
:100CB0005F5FE815F90544F019C051E0E0E0F0E0AD
:100CC000B0E066247724CC241A161B066CF7EA0DD4
:100CD000FB1D608170E093014C2D8D2D851B9927A4
:100CE00087FD90957801E80EF91EBBCFCE010196E5
:100CF000B5010E94EB0581E001C080E026960FB6A9
:100D0000F894DEBF0FBECDBFDF91CF911F910F9141
:100D1000FF90EF90DF90CF90BF90AF909F908F901B
:100D20007F906F900895FF920F931F93CF93DF935F
:100D3000CDB7DEB72C970FB6F894DEBF0FBECDBF90
:100D40000E94230D66E070E00E946A0CFC01EE0F29
:100D5000FF1F8E0F9F1FFC01EE0FFF1FDE01179676
:100D6000EE5BFE4F86E001900D928150E1F70E940C
:100D7000230D64E070E00E946A0C8C0118161906BD
:100D80006CF4FF24CE0107960E940406F3948F2D85
:100D9000992787FD909580179107A4F3DE0111969E
:100DA000FE01379686E001900D928150E1F729818E
:100DB0003A814B815C816D817E8190E02C960FB6EB
:100DC000F894DEBF0FBECDBFDF91CF911F910F9181
:100DD000FF900895FC015581838190E0850F911D5E
:100DE00087309105D4F4848190E0181619068CF4AC
:100DF00020E030E040E0DF01A20FB31F2C91220F72
:100E00002C934F5F242F332727FD30952817390760
:100E100094F35F5F558381E0089580E00895FC01BD
:100E200055815523D1F0848190E0181619068CF471
:100E300020E030E040E0DF01A20FB31F2C912695A7
:100E40002C934F5F242F332727FD30952817390720
:100E500094F35150558381E0089580E008950E94F5
:100E6000CE050E94070508950E94E9000E94150121
:100E70000E9427090E94EF030E94A0050E94BF0A5A
:100E800008952F923F924F925F926F927F928F922E
:100E90009F92AF92BF92CF92DF92EF92FF920F9309
:100EA0001F93CF93DF930E94180C862E972EA82EA7
:100EB000B92E10E00F2EF8EE2F2EF3E03F2EF02D7E
:100EC00001E04424502E0E94180C6B017C010E940A
:100ED00037098A30910510F4E10102C0C0E9D1E080
:100EE0000E9437098832910510F0CCE2D1E00E94CF
:100EF00037098C33910510F0C8ECD0E00E94370917
:100F00008035910510F0C4E6D0E0CE01A0E0B0E05D
:100F1000880D991DAA1DBB1DC816D906EA06FB0639
:100F2000C0F00E94A201882359F00E94A802182F45
:100F3000882369F40E94080246015701102F09C056
:100F40000E940503882309F4C9C0102F02C046017E
:100F500057010E94A005882389F40E94EF03843082
:100F600010F48F5959F40E94B80A882309F4ACC0D0
:100F7000EAE2F3E0808191810E94330D823409F42A
:100F800054C0833440F48133C1F0813469F080333C
:100F900009F09AC029C0853409F45CC0813671F12A
:100FA000843409F091C016C00E94A201882309F47C
:100FB0008BC00E947602182B87C00E94A201882352
:100FC00009F482C00E94A802882309F084C00E940C
:100FD000080281C00E94A201882309F475C0802FF5
:100FE0000E94C702182F70C00E94A201882309F432
:100FF0006BC0842D0E94C702182F66C00E94A005F6
:10100000882381F40E94EF03843010F48F5951F447
:101010000E94B80A882391F3EAE2F3E0808191818B
:101020000E94330D813651F74FC00E94A2018823E0
:1010300009F44AC006C08D2E972CA62CBC2E152D67
:1010400004C0DC2D7D2C6E2CCF2D0E94A80288239D
:1010500091F73AC00E94A2018823B1F10E9434079F
:101060000E943C090E9427098AE090E06EE070E04F
:101070000E94540B0E94370900D000D026E631E0D0
:10108000EDB7FEB732832183948383830E94730D6F
:101090000F900F900F900F908AE090E061E170E068
:1010A0000E94540B0E944C0900D000D020E731E090
:1010B000EDB7FEB732832183948383830E94730D3F
:1010C0000F900F900F900F90112309F4FCCE0E9407
:1010D0001501142DF8CE46015701F9CFDF91CF91BC
:1010E0001F910F91FF90EF90DF90CF90BF90AF9046
:1010F0009F908F907F906F905F904F903F902F9038
:101100000895FFCF60E07BE480E090E040E00E9443
:10111000770A0E94AA0580E090E00E94FB048FE21B
:1011200097E00E94040C0E94E503789408958F9242
:101130009F92AF92BF92CF92DF92EF92FF920E9466
:10114000890B8AE090E06CE070E00E94540B81E82B
:1011500091E00E94B20D84EA91E00E9451098AE078
:1011600090E06EE070E00E94540B0E94370900D0BE
:1011700000D026E631E0EDB7FEB7328321839483B9
:1011800083830E94730D0F900F900F900F908AE051
:1011900090E062E070E00E94540B00D08DEA91E094
:1011A000EDB7FEB7928381830E94730D0F900F906D
:1011B0008AE090E061E170E00E94540B0E944C09CB
:1011C00000D000D020E731E0EDB7FEB732832183B5
:1011D000948383830E94730D0F900F900F900F9054
:1011E0008824992454010E94180C6B017C01D501BC
:1011F000C4018A569F4FAF4FBF4FC816D906EA06A3
:10120000FB0630F00E945609882371F04601570111
:101210000E94EF038F3F41F40E94A005882321F430
:101220000E94B80A8823F9F2FF90EF90DF90CF90E8
:10123000BF90AF909F908F9008950E9482080E9467
:1012400097080E9434070E9441070E94810810926B
:101250001502109214020895209114023091150283
:10126000280F391F3093150220931402089580919E
:101270001402909115020895109213021092120216
:1012800008952091120230911302280F391F3093D4
:10129000130220931202089580911202909113027A
:1012A00008959093D7018093D6010895CF92DF924D
:1012B000EF92FF920F931F93CF93DF93E091D801AA
:1012C000F091D901309781F0049100FF06C010928F
:1012D000D9011092D80160E069C03196F093D9012C
:1012E000E093D80160E062C0E091DA01F091DB01A7
:1012F000309709F447C08191F093DB01E093DA0164
:10130000882339F41092DB011092DA0160E000E0EA
:101310004DC0982F91569A3178F4E82FF0E0EE0FF7
:10132000FF1FE653F040859194918093D8019093EC
:10133000D90160E000E03AC0982F91549A3178F4D6
:10134000E82FF0E0EE0FFF1FE65FFF4F85919491CD
:101350008093D8019093D90160E000E027C0982FD6
:1013600090539A3008F5E82FF0E0EE0FFF1FE05A97
:10137000FF4F859194918093D8019093D90160E0BB
:1013800000E014C08091D6019091D70161E00097F0
:1013900009F060E09093DB018093DA011092D701AD
:1013A0001092D60100E002C060E000E020E030E0F2
:1013B000C4E0D2E010E0EE24FF24CC24DD24C3946A
:1013C000C901880F991FFE01E80FF91FA081B181A3
:1013D000C9010796A80102C0440F551F8A95E2F77C
:1013E00040705074CD0196958795842B952B9183F1
:1013F0008083662339F0808191816C2D009719F0EC
:101400006E2D01C06E2D2F5F3F4F27303105C1F685
:1014100081E0611180E0DF91CF911F910F91FF90EA
:10142000EF90DF90CF900895CF93C82F8A3019F4B2
:101430008DE00E94140A9FB7907802C0992309F1A9
:10144000809117028F3FD1F3F89480911602E8E162
:10145000F2E0E80FF11DC0838F5F80931602809148
:1014600017028F5F80931702809116028F3F11F44D
:1014700010921602559A992339F0789480E090E002
:1014800005C081E090E002C080E090E0CF91089537
:10149000809129038823E1F32FB72078F894809175
:1014A00017033091290390E0831B910999235CF481
:1014B000E091170380912903F0E0E81BF109E85D52
:1014C000FC4F80810AC0E091170380912903F0E06E
:1014D000E81BF109E85EFC4F80819091290391504F
:1014E00090932903222309F0789490E008951092B4
:1014F00016021092170210921703109229031092ED
:1015000028034093DC01DC01CB01880F991FAA1F3F
:10151000BB1F880F991FAA1FBB1F9C01AD01220F83
:10152000331F441F551F60E072E18AE790E00E947C
:101530007D0CCA01B9016F5F7F4F8F4F9F4F22E033
:1015400030E040E050E00E947D0C2150304030936C
:10155000900029B988E18AB9579A89EB91E0909374
:101560002D0380932C0390932B0380932A030895DB
:101570009091290381E0992309F480E00895109265
:1015800017031092290308951F920F920FB60F921E
:1015900011242F938F939F93EF93FF9380911702C2
:1015A000882329F1809116022091170290E0821B76
:1015B000910999235CF4E091160280911702F0E002
:1015C000E81BF109E95EFC4F80810AC0E091160238
:1015D00080911702F0E0E81BF109E85EFD4F808181
:1015E000909117029150909317028CB901C05598B1
:1015F000FF91EF919F918F912F910F900FBE0F90C0
:101600001F9018951F920F920FB60F9211242F93CF
:101610003F934F935F936F937F938F939F93AF937A
:10162000BF93CF93EF93FF93CCB18091DC018823DC
:1016300049F0809117028F3F29F08C2F60E070E015
:101640000E94140A80912903803120F081E0809368
:10165000280318C0CD3009F4CAE080911703E8E1EF
:10166000F3E0E80FF11DC0838F5F80931703809133
:1016700029038F5F8093290380911703803111F430
:1016800010921703FF91EF91CF91BF91AF919F916E
:101690008F917F916F915F914F913F912F910F901B
:1016A0000FBE0F901F90189500D000D000D0EDB75E
:1016B000FEB731962AE631E0ADB7BEB712963C933D
:1016C0002E93119773836283958384830E94880D80
:1016D0008DB79EB706960FB6F8949EBF0FBE8DBF0E
:1016E000089500D083E791E0EDB7FEB79283818340
:1016F0000E94880D0F900F90089500D088E791E028
:10170000EDB7FEB7928381830E94880D0F900F90F2
:10171000089500D08DE791E0EDB7FEB79283818305
:101720000E94880D0F900F90089500D082E891E0FC
:10173000EDB7FEB7928381830E94880D0F900F90C2
:10174000089500D000D026E831E0EDB7FEB732832F
:101750002183992787FD9095948383830E94880D28
:101760000F900F900F900F9008950F931F93CF93AA
:10177000DF939C018B01EA01CB01B9010E94540B5C
:101780000E947D0BC017D1074CF080E290E00E94D0
:10179000AB0D0F5F1F4FC017D107BCF70E94710B35
:1017A000DF91CF911F910F910895EF92FF920F93C8
:1017B0001F93CF93DF93EB017A010E94540B0E9499
:1017C0007D0BCE15DF059CF40CE811E080E290E083
:1017D0000E94AB0D00D0EDB7FEB7128301830E94CB
:1017E000880D21960F900F90CE15DF057CF380E2D7
:1017F00090E00E94AB0D0E94710BDF91CF911F9181
:101800000F91FF90EF9008951092DD011092DE018C
:101810001092DF011092E0019093E2018093E101C8
:101820008CE783BD87B7806887BF8BE085BD08954F
:101830000F931F938FB7F8940091DD011091DE0193
:101840002091DF013091E00188230CF47894602F1F
:10185000712F822F932F1F910F9108951F920F9236
:101860000FB60F9211242F933F934F935F936F9373
:101870007F938F939F93AF93BF93EF93FF93809149
:10188000DD019091DE01A091DF01B091E0010196B0
:10189000A11DB11D8093DD019093DE01A093DF01B6
:1018A000B093E001E091E101F091E201309709F09D
:1018B0000995FF91EF91BF91AF919F918F917F918A
:1018C0006F915F914F913F912F910F900FBE0F90AD
:1018D0001F90189597FB092E07260AD077FD04D094
:1018E00027D006D000201AF4709561957F4F089597
:1018F000F6F7909581959F4F089597FB092E052641
:101900000ED057FD04D028D00AD0001C38F45095D2
:101910004095309521953F4F4F4F5F4F0895F6F713
:1019200090958095709561957F4F8F4F9F4F08954B
:10193000AA1BBB1B51E107C0AA1FBB1FA617B707F5
:1019400010F0A61BB70B881F991F5A95A9F7809511
:101950009095BC01CD010895A1E21A2EAA1BBB1BD4
:10196000FD010DC0AA1FBB1FEE1FFF1FA217B3076B
:10197000E407F50720F0A21BB30BE40BF50B661F81
:10198000771F881F991F1A9469F760957095809545
:1019900090959B01AC01BD01CF0108958F929F925C
:1019A000AF92BF92CF92DF92EF92FF92CF93DF93ED
:1019B000EC0188819981AA81BB810097A105B105BD
:1019C00021F484E299EDABE5B7E0BC01CD012DE156
:1019D00033EF41E050E00E947D0C49015A0127EAB3
:1019E00031E440E050E00E945E106B017C01C501D3
:1019F000B4012CEE34EF4FEF5FEF0E945E10DC017C
:101A0000CB01C80ED91EEA1EFB1EF7FE08C08FEFE1
:101A10009FEFAFEFBFE7C80ED91EEA1EFB1EC882BC
:101A2000D982EA82FB82C6019F77DF91CF91FF9036
:101A3000EF90DF90CF90BF90AF909F908F900895E0
:101A40000E94CE0C089587EC91E00E94CE0C089580
:101A5000A0E0B0E08093C7019093C801A093C901B2
:101A6000B093CA010895CF93DF93EC012B8120FF3F
:101A700035C026FF09C02F7B2B838E819F81019665
:101A80009F838E838A8128C022FF0FC0E881F9815D
:101A90008081992787FD9095009719F420622B8308
:101AA0001DC03196F983E88311C0EA85FB85CE011C
:101AB000099597FF0BC02B813FEF8F3F930711F4E0
:101AC00080E101C080E2822B8B8308C02E813F81A0
:101AD0002F5F3F4F3F832E8390E002C08FEF9FEF39
:101AE000DF91CF910895A0E0B0E0E9E7FDE00C942C
:101AF0008D10FE0135966191719180912C0390912A
:101B00002D03AF010E94E00D2096E2E00C94A91095
:101B1000A0E0B0E0EEE8FDE00C948D10FE013596FB
:101B20006191719180912C0390912D03DC011396AA
:101B30002C911397286013962C93AF010E94E00D0F
:101B4000E0912C03F0912D032381277F238320969E
:101B5000E2E00C94A91060912C0370912D030E9477
:101B6000D40F08950F931F93CF93DF938C01E091CF
:101B70002C03F0912D03838181FF1AC0C0E0D0E0D7
:101B800005C00995009711F0CFEFDFEFF8018191C3
:101B90008F0160912C0370912D03DB011896ED915C
:101BA000FC911997882369F78AE00995009711F04D
:101BB000CFEFDFEFCE01DF91CF911F910F9108950D
:101BC000ADE0B0E0E6EEFDE00C947D103C017D87D9
:101BD0006C875A01FC0117821682838181FFC8C17C
:101BE0002E010894411C511CF3019381EC85FD8565
:101BF00093FD859193FF8191FD87EC87882309F4FC
:101C0000B3C1853241F493FD859193FF8191FD87A6
:101C1000EC87853229F490E0B3010E94D40FE4CF21
:101C2000FF24EE2410E01032B0F48B3269F08C32D5
:101C300028F4803251F0833271F40BC08D3239F0C8
:101C4000803349F411602CC01260146029C0186000
:101C500027C0106125C017FD2EC0282F20532A3021
:101C600098F416FF08C08F2D880FF82EFF0CFF0C7C
:101C7000F80EF20E15C08E2D880FE82EEE0CEE0C2D
:101C8000E80EE20E10620CC08E3221F416FD6CC11B
:101C9000106406C08C3611F4106802C0883659F4FE
:101CA000EC85FD8593FD859193FF8191FD87EC8700
:101CB000882309F0B8CF982F9554933018F090529C
:101CC000933038F424E030E0A20EB31E3FE33983B2
:101CD0000FC0833631F0833781F0833509F05AC065
:101CE00022C0F5018081898322E030E0A20EB31E7C
:101CF00021E0C22ED12C420114C092E0292E312CB9
:101D00002A0C3B1CF5018080918016FF03C06F2DCB
:101D100070E002C06FEF7FEFC4010E94C90F6C0139
:101D200051011F7715C082E0282E312C2A0C3B1C54
:101D3000F5018080918016FF03C06F2D70E002C016
:101D40006FEF7FEFC4010E94BE0F6C01106851015C
:101D500013FD1CC006C080E290E0B3010E94D40FC6
:101D6000EA948E2D90E0C816D906A8F30FC0F401AE
:101D700017FD859117FF81914F0190E0B3010E94FB
:101D8000D40FE110EA940894C108D108C114D10419
:101D900071F7E7C0843611F0893651F5F50117FF68
:101DA00007C080819181A281B38124E030E008C026
:101DB00080819181AA2797FDA095BA2F22E030E07B
:101DC000A20EB31E012F0F76B7FF08C0B095A095E5
:101DD000909581959F4FAF4FBF4F0068BC01CD01DB
:101DE000A2012AE030E00E940010D82ED4183FC093
:101DF000853721F41F7E2AE030E020C0197F8F361E
:101E0000A9F0803720F4883509F0AEC00BC08037C8
:101E100021F0883709F0A8C001C0106114FF09C083
:101E2000146007C014FF08C0166006C028E030E048
:101E300005C020E130E002C020E132E0F50117FFEB
:101E400007C0608171818281938144E050E006C0C7
:101E50006081718180E090E042E050E0A40EB51E08
:101E6000A2010E940010D82ED418012F0F7706FF70
:101E700009C00E7FDF1430F404FF06C002FD04C069
:101E80000F7E02C01D2D01C01F2D802F90E004FF8A
:101E90000CC0FE01ED0DF11D2081203311F4097EEF
:101EA00009C002FF06C01E5F05C0867890700097CB
:101EB00009F01F5F802E992403FD12C000FF0DC0A2
:101EC000FD2C1E1550F4FE0CF11A1E2D06C080E2EA
:101ED00090E0B3010E94D40F1F5F1E15C0F304C031
:101EE0001E1510F4E11A01C0EE2484FE0FC080E339
:101EF00090E0B3010E94D40F82FE1FC081FE03C098
:101F000088E590E010C088E790E00DC0C4018678B5
:101F10009070009791F081FC02C080E201C08BE2DA
:101F200007FD8DE290E0B3010E94D40F06C080E36C
:101F300090E0B3010E94D40FFA94DF14C0F3DA9456
:101F4000F201ED0DF11D808190E0B3010E94D40FEC
:101F5000DD20A9F706C080E290E0B3010E94D40F13
:101F6000EA94EE20C1F740CEF3018681978102C04A
:101F70008FEF9FEF2D96E2E10C949910FC010590F4
:101F8000615070400110D8F7809590958E0F9F1F7B
:101F90000895FC016150704001900110D8F78095C0
:101FA00090958E0F9F1F08950F931F93CF93DF93EC
:101FB0008C01EB018B8181FF1BC082FF0DC02E8144
:101FC0003F818C819D812817390764F4E881F9816C
:101FD0000193F983E88306C0E885F985802F099588
:101FE000009731F48E819F8101969F838E8302C07A
:101FF0000FEF1FEFC801DF91CF911F910F9108954F
:10200000FA01AA27283051F1203181F1E8946F9329
:102010006E7F6E5F7F4F8F4F9F4FAF4FB1E03ED0CF
:10202000B4E03CD0670F781F891F9A1FA11D680F6D
:10203000791F8A1F911DA11D6A0F711D811D911DA0
:10204000A11D20D009F468943F912AE0269F112415
:102050003019305D3193DEF6CF010895462F477079
:10206000405D4193B3E00FD0C9F7F6CF462F4F70D4
:10207000405D4A3318F0495D31FD4052419302D032
:10208000A9F7EACFB4E0A6959795879577956795D8
:10209000BA95C9F700976105710508959B01AC01D8
:1020A0000A2E06945795479537952795BA95C9F7FF
:1020B000620F731F841F951FA01D0895629FD0019A
:1020C000739FF001829FE00DF11D649FE00DF11DF3
:1020D000929FF00D839FF00D749FF00D659FF00DA2
:1020E0009927729FB00DE11DF91F639FB00DE11D8F
:1020F000F91FBD01CF01112408952F923F924F92F5
:102100005F926F927F928F929F92AF92BF92CF9287
:10211000DF92EF92FF920F931F93CF93DF93CDB790
:10212000DEB7CA1BDB0B0FB6F894DEBF0FBECDBF08
:1021300009942A88398848885F846E847D848C84D9
:102140009B84AA84B984C884DF80EE80FD800C81E2
:102150001B81AA81B981CE0FD11D0FB6F894DEBFC5
:0C2160000FBECDBFED010895F894FFCF35
:10216C0053636F72653A20257500436F6D706C6513
:10217C00746520726F773A2025750020202020206E
:10218C00202000FF000000000000313233410034F9
:10219C003536420037383943003046454400D0705C
:1021AC00E0B0010000010100010101010300030383
:1021BC0000020200070400030200070200030200F1
:1021CC0003060003020053636F72653A2025750005
:1021DC00436F6D706C65746520726F773A2025754E
:1021EC0000544554524953202D204353534532300B
:1021FC0031302F43535345373230312050726F6A90
:10220C00656374003432383334383231004E6578BB
:10221C00742070696563653A0000000003000000DB
:0C222C0000140A480A0000010000000035
:00000001FF
